:100000000C9434000C943E000C943E000C943E0082
:100010000C943E000C943E000C943E000C943E0068
:100020000C943E000C943E000C943E000C943E0058
:100030000C943E000C943E000C943E000C943E0048
:100040000C943E000C943E000C943E000C943E0038
:100050000C943E000C943E000C943E000C943E0028
:100060000C943E000C943E0011241FBECFEFD8E04C
:10007000DEBFCDBF0E94AB000C94FC000C940000CE
:10008000CF93DF9300D000D0CDB7DEB769837A83FA
:100090008B839C830BC089819A81AB81BC81039740
:1000A000A109B10989839A83AB83BC8389819A8131
:1000B000AB81BC81181619061A061B0664F30000F2
:1000C00000000F900F900F900F90DF91CF91089547
:1000D000CF93DF93CDB7DEB72C970FB6F894DEBF82
:1000E0000FBECDBF69837A838B839C8349815A81FC
:1000F0006B817C8180ED97E0DC019A01AB010E946D
:10010000E20069877A878B879C8729853A854B85AA
:100110005C8529833A834B835C8389819A81AB8197
:10012000BC819C01AD0125503109410951092D8344
:100130003E834F8358876D817E818F8198850E9491
:10014000400000002C960FB6F894DEBF0FBECDBF66
:10015000DF91CF910895CF93DF93CDB7DEB784E2DF
:1001600090E0FC01208184E290E02860FC01208383
:100170008AE290E0FC01108289E290E0FC0180813B
:10018000882F90E088709927892BB1F3000089E2CD
:1001900090E0FC018081882F90E088709927892B5E
:1001A000B1F785E290E0FC01308185E290E028E043
:1001B0002327FC01208368EC70E080E090E00E943F
:1001C0006800DACF0E94ED00A59F900DB49F900DBE
:1001D000A49F800D911D11240895A29FB001B39F8B
:1001E000C001A39F700D811D1124911DB29F700D40
:0C01F000811D1124911D0895F894FFCF8B
:00000001FF
