:100000000C9434000C943E000C943E000C943E0082
:100010000C943E000C943E000C943E000C943E0068
:100020000C943E000C943E000C943E000C943E0058
:100030000C943E000C943E000C943E000C943E0048
:100040000C943E000C943E000C943E000C943E0038
:100050000C943E000C943E000C943E000C943E0028
:100060000C943E000C943E0011241FBECFEFD8E04C
:10007000DEBFCDBF0E9493000C94D3000C9400000F
:10008000CF93DF9300D000D0CDB7DEB769837A83FA
:100090008B839C830BC089819A81AB81BC81039740
:1000A000A109B10989839A83AB83BC8389819A8131
:1000B000AB81BC81181619061A061B0664F30000F2
:1000C0000F900F900F900F90DF91CF910895CF93E5
:1000D000DF9300D000D0CDB7DEB769837A838B83FE
:1000E0009C8329813A814B815C8180ED97E0DC0122
:1000F0000E94B900DC01CB0189839A83AB83BC8366
:1001000089819A81AB81BC810597A109B109BC01A4
:10011000CD010E94400000000F900F900F900F90B3
:10012000DF91CF910895CF93DF93CDB7DEB784E20F
:1001300090E024E230E0F90120812860FC01208376
:1001400085E290E0FC01808185E290E0FC01108274
:1001500064EF71E080E090E00E94670085E290E04B
:1001600025E230E0F901308128E02327FC012083DB
:10017000EFCF0E94C400A59F900DB49F900DA49F47
:10018000800D911D11240895A29FB001B39FC0015D
:10019000A39F700D811D1124911DB29F700D811DB3
:0A01A0001124911D0895F894FFCF7B
:00000001FF
