:100000000C9434000C943E000C943E000C943E0082
:100010000C943E000C943E000C943E000C943E0068
:100020000C943E000C943E000C943E000C943E0058
:100030000C943E000C943E000C943E000C943E0048
:100040000C943E000C943E000C943E000C943E0038
:100050000C943E000C943E000C943E000C943E0028
:100060000C943E000C943E0011241FBECFEFD8E04C
:10007000DEBFCDBF0E94A8000C9429010C940000A3
:10008000CF93DF9300D000D0CDB7DEB769837A83FA
:100090008B839C830BC089819A81AB81BC81039740
:1000A000A109B10989839A83AB83BC8389819A8131
:1000B000AB81BC81181619061A061B0664F30000F2
:1000C00000000F900F900F900F90DF91CF91089547
:1000D000CF93DF93CDB7DEB72C970FB6F894DEBF82
:1000E0000FBECDBF69837A838B839C8349815A81FC
:1000F0006B817C8180ED97E0DC019A01AB010E946D
:100100000F0169877A878B879C8789859A85AB855C
:10011000BC8589839A83AB83BC8389819A81AB81B7
:10012000BC810597A109B1098D839E83AF83B887F0
:100130006D817E818F8198850E94400000002C9601
:100140000FB6F894DEBF0FBECDBFDF91CF910895FB
:10015000CF93DF93CDB7DEB784E290E0FC0120813E
:1001600084E290E02860FC01208384E290E0FC01BE
:10017000208184E290E02460FC01208384E290E00E
:10018000FC01208184E290E02260FC01208384E273
:1001900090E0FC01208184E290E02160FC0120835A
:1001A0008AE290E0FC01108285E290E0FC0110827E
:1001B00089E290E0FC018081882F90E08870992787
:1001C000892BB1F7000089E290E0FC018081882F43
:1001D00090E088709927892BB1F385E290E0FC01CB
:1001E0008081882F90E08F7099270F9739F485E2EE
:1001F00090E0FC018081282F207F06C085E290E0FE
:10020000FC01808121E0280F85E290E0FC01208341
:1002100068EC70E080E090E00E946800C9CF0E9426
:100220001A01A59F900DB49F900DA49F800D911D64
:1002300011240895A29FB001B39FC001A39F700D28
:10024000811D1124911DB29F700D811D1124911DDE
:060250000895F894FFCFB1
:00000001FF
